:1000000000000320D1010000F51B0000AD1B000023
:10001000AD1B0000AD1B0000AD1B0000AD1B0000C0
:10002000AD1B0000AD1B0000AD1B0000F51B000068
:10003000F51B0000AD1B0000B5360000B93700000D
:10004000F51B0000F51B0000F51B0000F51B000070
:10005000F51B0000F51B0000F51B0000F51B000060
:10006000F51B0000F51B0000F51B0000F51B000050
:10007000F51B0000F51B0000F51B0000F51B000040
:10008000F51B0000F51B0000F51B0000F51B000030
:10009000F51B0000F51B0000F51B0000F51B000020
:1000A000D94D0000E54D0000F51B0000F51B0000D8
:1000B000F51B0000F51B0000F51B0000E1380000F7
:1000C000F51B00000D3A0000F51B0000393B000055
:1000D000F51B0000313C0000F51B0000F51B000083
:1000E000F51B0000F51B0000F51B0000F51B0000D0
:1000F000F51B0000F51B0000F51B0000F51B0000C0
:10010000F51B0000F51B0000F51B0000F51B0000AF
:10011000F51B0000B5250000F51B0000F51B0000D5
:10012000F51B0000F51B0000F51B0000F51B00008F
:10013000F51B0000F51B0000F51B0000F51B00007F
:10014000E1180000F51B0000293D0000F51B000030
:10015000F51B0000F51B0000F51B0000F51B00005F
:10016000F51B0000F51B0000F14D0000F51B000021
:10017000F51B0000F51B0000F51B0000F51B00003F
:10018000F51B0000F51B0000F51B0000F51B00002F
:10019000F51B0000F51B0000213E0000F51B0000D0
:1001A000F51B0000F51B0000F51B0000F51B00000F
:1001B000F51B0000F51B0000F51B0000F51B0000FF
:1001C000F51B0000F51B0000F51B0000F51B0000EF
:1001D0005C4B4CF2205210B51A804DF628121A8052
:1001E00000BF00BF01F00AFD574B4FF030621A60AC
:1001F000564A9A60564ADA60564B4FF470021A60BB
:10020000554B564A1A60564B1A78110703D51A787F
:1002100042F008021A70534B5349AA221A70534AEB
:10022000534B8B4204D252F8040F43F8040BF8E707
:10023000504B514900228B4202D243F8042BFAE77B
:100240004E494F4A002352F8230041F8230001335E
:10025000742BF8D14B4B4C4A802103F8011B93427D
:10026000FBD14A4B454A1A60494B8A221A70A3F5C2
:10027000805324225A70A0221A709A799207FCD5D2
:100280009A79D406FCD4434A937903F00C03082BE3
:10029000FAD1414B60221A7002331A78802AFCD1BD
:1002A0003C4B01221A715D225A719A799006FCD555
:1002B0009979384A4906FBD5384B394919600021EC
:1002C000596020231370937903F00C030C2BFAD19F
:1002D000344B354A1A60354A354C136813F4807331
:1002E00003D123604FF4A8531360324B324A1A6093
:1002F00000225A60072243F8042C304AC3F80C2D20
:1003000062B601F0D3FD2368DA0705D52C4801F069
:100310002BFD2C4B2C4A1A602C4B1B785B0609D505
:10032000284C294B22689A4204D1254801F01CFD33
:100330000023236004F0A6FD01F066FC01F094FBAD
:10034000FEE700BF0E20054030800440823F0400DD
:100350000100002B88ED00E0002008E0030000858C
:1003600002D0074000E00740AC2BFF1F945801006B
:10037000F81BFF1FAC2BFF1FC041FF1F0010FF1F0A
:100380000000000000E400E064E400E008ED00E0AC
:10039000005006400040064001E007404480044011
:1003A0000000060204800440C010070010D0034083
:1003B00014D0034014E000E01FBF02000000202022
:1003C000576C975D1CE00340A5C3945A00F00740AA
:1003D000FFFFFFFFFFFFFFFFFFFFFFFFFFFFFFFF2D
:1003E000FFFFFFFFFFFFFFFFFFFFFFFFFFFFFFFF1D
:1003F000FFFFFFFFFFFFFFFFFFFFFFFFFFFFFFFF0D
:10040000FFFFFFFFFFFFFFFFFFFFFFFFDEF9FFFF23
:1004100010B5054C237833B9044B13B10448AFF33E
:1004200000800123237010BDAC2BFF1F00000000D3
:1004300090580100084B10B51BB108490848AFF3AC
:1004400000800848036803B910BD074B002BFBD0A0
:10045000BDE81040184700BF00000000B02BFF1F90
:1004600090580100AC2BFF1F0000000010B504469F
:1004700001F0E0F9204610BD38B504461D4B03607D
:100480000021012004F224720B4660722261217265
:10049000E16000E0226942F82310627A01339A4257
:1004A000F8DC154B1A680AB921E01A465369002B8B
:1004B000FBD1546100251149114B2160C4F818315A
:1004C0006561A580E580A57284F8215784F82257DC
:1004D0002A4601234FF4807104F5E56004F062F9C7
:1004E000082384F82037C4F81C51204638BD1C600E
:1004F000E0E700BFCC580000703BFF1FD858000059
:10050000F85800002DE9F843DFF8C0802A482B4F47
:100510002B4E2C4D2C4CDFF8B8900A2101F07CF8C2
:10052000404600F0F5FE404601F070F8FF214046DD
:1005300001F042F8384600F0EBFE384601F066F86C
:10054000FF21384601F038F8304600F0E1FE304631
:1005500001F05CF8FF21304601F02EF8284600F04B
:10056000D7FE284601F052F8FF21284601F024F872
:10057000204600F0CDFE204601F048F82046FF213D
:1005800001F01AF8484600F08FFB4846812100F040
:1005900029FC0121242001F00DFC0021272001F07D
:1005A00009FC0021262001F005FC01212420BDE8E2
:1005B000F84301F0EBBB00BF0002FF1F9C33FF1F9D
:1005C000B433FF1FCC33FF1FE433FF1F8433FF1FFF
:1005D000C82BFF1F2DE9F04F2720D5B001F0DCFB21
:1005E000002800F0D280B64C2368002B00F0D580A4
:1005F000B44B93ED007ADFEDB46ADFEDB47ADFF847
:10060000F892DFF8F882B248E7EE267A00250DF17D
:10061000100A14AEFCEEE77A17EE901A00F0E2FB37
:1006200039F8184F38F8183F1C446410ADF85040A2
:100630001FE0AF1024113AF81730C3F1FF01A142B7
:10064000D4BF5C181C19A4B2032A2AF817401FD083
:100650000135802D2AD038F8024F39F8023FA5F134
:100660001D0B1C446410BBF1180F748040F2D48041
:10067000023615F00302DCD12411AF10FF2CA8BF05
:10068000FF242AF81740002DE2D102920125E2E76B
:10069000904B1B68012B22D0022B3BD0032B54D054
:1006A000029B01352344802D0293D4D1029B002B61
:1006B00067D1894B1A68002A7DD0884800F07CFEFB
:1006C000874800F079FE874800F076FE864800F003
:1006D00073FE864855B0BDE8F04F00F06DBEBBB26A
:1006E0005FFA84FB0027039319465A463B4600975E
:1006F0007A4800F03BFF3B465A46039900977848FA
:1007000000F034FF00973B465A460399774800F0C3
:100710002DFFC5E7BBB25FFA84FB002703931946A0
:100720003A465B4600976D4800F020FF5B463A462C
:10073000039900976A4800F019FF00975B463A4614
:1007400003996A4800F012FFAAE7BFB25FFA84FB80
:10075000002339461A46CDF800B0604800F006FF85
:10076000002339461A46CDF800B05D4800F0FEFE81
:100770000023CDF800B039461A465C4800F0F6FE7A
:100780008EE7554B00221A6097E7262001F004FB04
:1007900000287FF428AF4A4C2060272001F0FCFAA3
:1007A0000128484D1AD0262001F0F6FA01281FD062
:1007B00095ED007A1FE7474C01221A60256804F086
:1007C000A3FE4B4A82FB0013A3EBE07303EB43034E
:1007D000C31A591C8D4215D021606EE7D5ED007A01
:1007E0009FED447A206077EE877AC5ED007ADAE7EC
:1007F000D5ED007A9FED3F7A206037EEC77A85ED20
:10080000007AF8E6023382FB0312A2EBE37202EBFA
:1008100042029B1A236050E72E4B1B68012B19D014
:10082000022B31D0032B7FF423AF36F8387C2D48D0
:100830001FFA8BFBC7F30717002359461A46009788
:1008400000F094FE0023009759461A46264800F00F
:100850008DFE0DE736F8387C22481FFA8BF3C7F37C
:1008600007174FF0000B3A4603931946CDF800B036
:100870005B4600F07BFE3A46CDF800B05B4603993C
:10088000194800F073FEF3E636F8387C15481FFA75
:100890008BF31A464FF0000BC7F307173B46039242
:1008A0001146CDF800B05A4600F060FE3B46CDF848
:1008B00000B05A4603990C4800F058FED8E600BF35
:1008C000343BFF1FFC1BFF1F00000143EE7CFF3E7B
:1008D000C82BFF1F001CFF1F342CFF1F8433FF1F7A
:1008E0009C33FF1FB433FF1FCC33FF1FE433FF1FC4
:1008F000565555550AD7233CFC33FF1F4C2CFF1F80
:100900002DE9F8436E4E6F4D3268DFF80082C5F86E
:10091000008000236B722B612B72EB600AB9CAE076
:100920001A465369002BFBD155610027664B654879
:100930006F61AF80EF80AF72644C2B6001F0EEFB13
:100940006348FFF799FD6348FFF796FD022004F125
:1009500018023B4639462772E760C4F8008060728F
:100960002261274600E03A6942F82310627A57482C
:1009700001339A42F7DC3268514B0AB99DE01A46BE
:100980005369002BFBD154610026DFF88491524B50
:100990006661A680E680A6724C48504F236000F046
:1009A000B3FB4C4BC9F80430484689F80860C9F8D5
:1009B000005089F80960C9F80C6089F8106000F0EF
:1009C00005FF474A4749DFF84C81484603F0C6FF18
:1009D00038463E723D607C607E72FE603E7400F080
:1009E000F5FE3F4A3F49384603F0B8FF3E4FC8F88E
:1009F00000504FF001094046C8F80440C8F80C60A8
:100A000088F8106088F8089088F8099000F0DEFEF9
:100A1000334A3449354C404603F0A0FF2C4B7B60F1
:100A200038463D6087F808907E72FE603E7400F0A4
:100A3000CDFE38462A4A2B4903F090FF19222C4B51
:100A40002360114652230A252A48257200F078FDBA
:100A5000234A2949274803F081FF52231A221921EA
:100A6000264800F06DFD1E4A2349244803F076FF16
:100A700052231B221921224800F062FD184A1E4908
:100A80001F4803F06BFF52231C2219211D4800F060
:100A900057FD134A18491B4803F060FF52231D22DB
:100AA0001921194800F04CFD0D4A13491648BDE8BC
:100AB000F84303F053BF356037E7186064E700BFC1
:100AC000703BFF1FE82BFF1F505D0000142CFF1F21
:100AD000FC33FF1F4C2CFF1F005B0000D42BFF1FBB
:100AE000F81BFF1F6D040000002CFF1FC82BFF1F09
:100AF000E45800008433FF1FF11200009C33FF1FF5
:100B0000B433FF1FCC33FF1FE433FF1FCC5800006A
:100B1000383BFF1F382CFF1FF8B50021054600F0B9
:100B200049FE002855D0D5F81C710646002F4ED03E
:100B300005F58E743B1D224605F5907107F5827709
:100B400033F8020B42F8040F9F42F9D1331D05F52B
:100B5000477206F5827733F8020B42F8040FBB4266
:100B6000F9D1D5F8180180B105F5927200F5007E33
:100B700032F9043C30F9027B03FB07F3DB138645B3
:100B800022F8043C02F10402F2D105F5E56003F01D
:100B9000EBFD95F82177EFB905F21C5C95F820275D
:100BA000E64605F21C7154F8043F23FB03F3B3FB44
:100BB000F2F34EF8043F7145F5D17B1CDBB2934252
:100BC00020D085F82137D5F81C0100F0AFFDC5F81D
:100BD0001C61F8BD05F21C5C95F82027E64605F27D
:100BE0001C7154F8043F23FB03F35EF8040FB3FBBE
:100BF000F2F371450344CEF80030F2D17B1CDBB236
:100C00009342DED10023DFF83CE085F821376046CF
:100C100005F1160750F8044FB4FA84F381423EF808
:100C20001320B4FBF2F31A444FEA5203B4FBF3F47B
:100C300023444FEA530327F8023FEBD1012385F801
:100C40002237C0E7045B0000002070470020704797
:100C5000F8B5144C037A242908BFC2805B00012533
:100C60000E462046C1F30721174684F83B3084F82E
:100C70005E5084F85D5003F0B9FEF1B2204603F0F7
:100C8000B5FEC7F30721204603F0B0FEF9B22046B7
:100C900003F0ACFE2946204604F014F8B0FA80F0C8
:100CA0004009F8BD9422FF1F70B501260446067165
:100CB000344803F0AFFE052001F0A6F8204644F2C8
:100CC00060023021FFF7C4FF0546002858D06C228F
:100CD00026212046FFF7BCFF4FF4F9722821204659
:100CE000FFF7B6FF40F622722C212046FFF7B0FF37
:100CF00044F246423C212046FFF7AAFF40F2371259
:100D000024212046FFF7A4FF44F2FF0230212046B1
:100D1000FFF79EFF732202212046FFF799FF4FF451
:100D2000C87001F071F841F61D522E212046FFF7E0
:100D30008FFF042211462046FFF78AFF4FF4987276
:100D400006212046FFF784FF10220A212046FFF7E4
:100D50007FFF00220E212046FFF77AFF43F63C4238
:100D600010212046FFF774FF47F67F7222212046AC
:100D7000FFF76EFF362224212046FFF769FF6672D7
:100D8000284670BD9422FF1F10B5044619B10129F1
:100D900011D0002010BD55222021FFF759FF002857
:100DA000F7D0E28842F00402204692B22421BDE846
:100DB0001040FFF74DBF40F273122A21FFF748FFA2
:100DC0000028E6D0882220212046FFF741FF002896
:100DD000DFD0E288204622F004022421BDE8104042
:100DE000FFF736BF38B50546F1B1802903799ABFC0
:100DF000C1F1800444EA0424002433B92246284681
:100E00002221BDE83840FFF723BFC288002322F02B
:100E1000100203712421FFF71BFF224628462221DE
:100E2000BDE83840FFF714BF0123037147F67F7216
:100E30002221FFF70DFFEA8842F01002284692B205
:100E40002421BDE83840FFF703BF00BF9FED057ABE
:100E5000DFED057AE0EE077AFCEEE77A17EE901AFE
:100E6000FFF7C0BF00000143EE7CFF3E2DE9F84FC5
:100E7000334B34481A68344912681B790B7082422C
:100E800029D2324B1B784BBBDFF8D0A0DFF8D090D3
:100E9000DFF8D080DFF8D0B0DAF80060D9F8007061
:100EA000B8F80040BBF80050002E3BD09FB33A1D6D
:100EB000311D02EB450201EB440100F09DF9403584
:100EC00040347F2C1BD8A8F800407F2D0AD8ABF8FF
:100ED0000050BDE8F88FA0F58070D5E71C4B0122CB
:100EE0001A60D1E700243846ABF8004000F01EFC41
:100EF000184B1A68C9F800201C60BDE8F88F002460
:100F00003046A8F8004000F011FC134B1A68CAF8EC
:100F100000201C60D9E7311D01EB440100F08BF982
:100F20004034CEE737B1391D01EB450100F0A3F99C
:100F30004035C6E74FF48072394604F093FAC0E7B3
:100F4000503BFF1F400DFF1F1F800040683BFF1FED
:100F500008E200E0643BFF1F6C3BFF1F603BFF1F8C
:100F6000583BFF1F4C3BFF1F5C3BFF1F70B5002130
:100F7000044600F01FFC80B172B61C4A1368002BB7
:100F800029D01B490D6805B31A4E15600022086070
:100F9000328062B6184600F0C9FB2046012100F0FD
:100FA00009FC88B172B6144A1368CBB113490C68B6
:100FB00074B1134D1460002208602A8062B618468E
:100FC000BDE8704000F0B2BB70BD086062B6E4E7F7
:100FD000086062B670BD074910600B8062B6DCE73E
:100FE000074910600B8062B670BD00BF603BFF1FF9
:100FF0006C3BFF1F4C3BFF1F583BFF1F643BFF1F19
:101000005C3BFF1F10B5044600F012FD204610BDEA
:10101000284B29491A68294842F400421A600A6894
:1010200042F002020A601A6842F002021A60036883
:10103000002B3EDB224B1B68002B3ADB214A4FF092
:10104000804313601368002BFCDBF0B51E4C1F4877
:10105000DFF8A8E01E491F4B1F4A204F204E214DAC
:101060004FF2FE0CC4F800C0002404600120CEF84A
:101070000000DFF88CE0C1F800E04FF48031196027
:10108000194B1360DFF87CE0184A3A60346028603E
:1010900000F18E40CEF80000154CB967154816498E
:1010A00046F8503C4FF4C0632A61236003600B6034
:1010B000F0BD70473C8004404080044000F0024096
:1010C00080F0024000F1024004F1024060F0024072
:1010D00008F002400CF0024010F0024014F0024010
:1010E000E0F0024084F002401B1F0100001F1F1FA0
:1010F00008B004400CB0044018B0044004F00240B2
:101100000100000788F00240F8B5284C284F012163
:10111000204600F027FC274A274B002515601D605C
:10112000FFF776FF254B264ADFF8B0E02548264931
:101130004FF4C0661E60236802261A609E802279E2
:10114000C3F810E002F18042D8609E6002F50432DC
:101150004FF4807040F2011E0626D8829D82D8830B
:101160009D619E83A3F806E08D204FF0807315707B
:1011700010700B600F6000F09BFB2279134B144D35
:10118000187053119B0003F1604303F5614302F1B2
:101190001000012102F01F0201FA02F20D4E45F883
:1011A00020600D491A6023790B70F8BD503BFF1F7A
:1011B00001000090603BFF1F583BFF1F04B004403C
:1011C000400CFF1F00FEFFFF00F00240683BFF1FC6
:1011D0000010FF1F6D0E00001B80004022F0024037
:1011E000024A0349034803F0B9BB00BFF81BFF1FC5
:1011F00005100000503BFF1F2DE9F04F00F5807EE9
:10120000B1E8A00AB2E84015C5EA0643C6EA25449B
:10121000C7EA0845C8EA2746C9EA0A47CAEA294888
:10122000CBEA0C49CCEA2B4AA0E8F8078645E7D17F
:10123000BDE8F04F70474FF000022DE9F00F00F5C8
:10124000807C00BFB1E8A00AC5EA0203C2EA2544D7
:10125000C7EA0205C2EA2746C9EA0207C2EA2948E4
:10126000CBEA0209C2EA2B4AA0E8F8078445E9D193
:10127000BDE8F00F70474FF000022DE9F00F00F5C8
:10128000807C00BFB1E8A00AC2EA0543C2EA0504B7
:10129000C2EA0745C2EA0706C2EA0947C2EA0908E4
:1012A000C2EA0B49C2EA0B0AA0E8F8078445E9D173
:1012B000BDE8F00F70472DE9F00F089C00F5007BAA
:1012C00051F8045B53F8046BC5EA0647C6EA2549A2
:1012D00052F8045B54F8046BC5EA0648C6EA254A8E
:1012E000A0E880078345EBD1BDE8F00F704700BF51
:1012F00010B50446C06803F0F5FDB4F906000028F7
:1013000003DBC0B2002100F055FD204610BD00BF38
:1013100010B50446B0F90600002807DBC0B2012171
:1013200000F048FD0021A07900F030FD012363703A
:1013300010BD00BF38B50446C0680D4603F0D2FDAD
:10134000E37C207C83420CBF0320042010FB05F0CB
:1013500080B2A080012103F051FDE06008B16580FA
:1013600038BDA080608038BDF0B4077CC47CC568FF
:10137000C1F38106FF29A4EB0704C1F3811201F038
:1013800003074674B4FA84F48CBF00260126C1F327
:101390000111C27464098774067001744DB1511A49
:1013A000B1FA81F14909A14203D04188F0BCFFF7AD
:1013B000C1BFF0BC704700BF2DE9F843C368002BE4
:1013C0004FD0044600F0FCFC6369C01AB0F5967F6C
:1013D000F8D372B64649B4F906500B684548464AF8
:1013E00050F83500E668A788257843F080730B60D5
:1013F000136843F0010337441360A5B3A1F55D41C1
:10140000F8390A68BE4202F1E1021FD289464FF064
:10141000010C16F8018B4FF0080E80250B689B1A03
:10142000E02BFBD918EA050FD9F8002080F880C01E
:1014300055D00B689B1A8F2BFBD9BEF1010E80F89B
:1014400000C14FEA5505E9D1B742E2D12B490B68FB
:101450009B1AE02BFBD962B600F0B2FC6061BDE8DC
:10146000F883BDE8F88325490A68BE4202F5E172B7
:1014700020D289464FF0010C16F8018B4FF0080E70
:1014800080250B689B1AB3F5E17FFAD318EA050FA4
:10149000D9F8002080F880C018D00B689B1AD72B91
:1014A000FBD9BEF1010E80F800C14FEA5505E8D125
:1014B000B742E1D111490B689B1AB3F5E17FFAD32A
:1014C00062B600F07DFC6061BDE8F8830B689B1A92
:1014D000592BE6D80B689B1A592BF7D9E1E70B6813
:1014E0009B1A2C2BA9D80B689B1A2C2BF7D9A4E795
:1014F000FCED00E0485B0000001000E0041000E09C
:1015000038B543786BB10446B0F9060000280D46A3
:1015100009DBC0B2002100F04DFC6378E5801BB907
:1015200038BDC18038BDE180EDB22846012100F010
:1015300041FC28460021BDE8384000F027BC00BF30
:1015400070B5002504460E46457019460572C56003
:1015500045611546FFF708FF31462046FFF7EAFED2
:1015600020462946FFF7CCFF204670BD70B4448862
:101570009DF80C608C4219D9047A44B112FB04F234
:1015800014FB03F314FB06F4120A1B0A260A047C5C
:10159000C57CAC42C4680BD004EB810100244C55DF
:1015A000057C4A55427C8B54837CCE5470BC70477A
:1015B00001EB41012144F4E770B44E1C047AF6B209
:1015C000A64213D0013C14F0FF04C56810D18388F3
:1015D0002A4653B1137804FB03F31B1202F8013BB4
:1015E000531B81889BB29942F4D8067270BC704735
:1015F000FF2905D03302013B93FBF4F4A4B2E6E7E4
:101600004FF6FF7393FBF4F4E1E700BF8288C068F4
:10161000002103F027BF00BFB1F5607FF0B428BF01
:101620004FF4607172B6134A134C144B10600022D1
:10163000228003F1700443F8042FA342FBD1B1B11F
:101640000F4E002301275D0903F01F0456F82520E3
:1016500007FA04F4013322438B4246F82520F2D1E5
:101660000023438001338B4200F58270F9D162B6CA
:10167000F0BC7047783BFF1FF23BFF1F7C3BFF1F16
:10168000803BFF1FF0B472B6234F244E3C8806F116
:10169000700306EB8400984212D256F8241099B9D0
:1016A000021D06F17305631CAD1A03EB950503E0FB
:1016B00052F8041B41B90133AB421C461046F7D126
:1016C00062B60020F0BC7047B1FA81F34FF00042DF
:1016D000DA4021EA0201016001B9013410493C807D
:1016E0000A88013294B20C8062B6801B8010C3EB72
:1016F000401000EB801083000A480B49006803F596
:10170000FB531C330125C5540D88AA42184488BFD9
:101710000C80F0BC704700BFF23BFF1F803BFF1FF7
:10172000F43BFF1F783BFF1F743BFF1F428872B6DC
:101730000378012B03D9013B037062B67047531144
:1017400070B40C4C0C4D54F823102E88D2434FF03B
:10175000004002F01F0220FA02F21143074A44F847
:101760002310B34238BF2B801388013B138062B62D
:1017700070BC7047803BFF1FF23BFF1FF43BFF1F15
:10178000C368B3B130B401E0DB688BB1187A904222
:10179000FAD158685C7A006950F82450002DF3D1D2
:1017A00040F82410087801300870DB68002BEDD178
:1017B00030BC7047437A8B4206D90369002253F844
:1017C000210043F82120704700207047037C23BB91
:1017D0004368427A5B7A9A421FD830B472B6046882
:1017E000E3682BB3DA6832B119688C4216D013461D
:1017F000DA68002AF8D1D8600023C360A37A0133E5
:10180000A37202684168012313728A7A1A448A72A9
:1018100042681372037462B630BC70475D684168F9
:101820008D42E4D1198903899942F4D01346DFE748
:10183000E060E1E7037C10B5002B32D04368427AC8
:101840005B7A9A422DD872B60268D36843B3984245
:1018500002D129E0984202D0DB68002BFAD143681C
:10186000417A1B69044653F8210048B1FFF75EFF37
:1018700072B66368627A1B69002143F822102268FD
:10188000937A013B937223689A7A02B91A7262685A
:10189000937A013B937263689A7A1AB10023237496
:1018A00062B610BD1A72F9E7C368D360D7E700BF0C
:1018B000084B1A785AB90848084910B4D024047063
:1018C000012210460A601A705DF8044B7047002030
:1018D000704700BF7C3BFF1F40E400E008E100E0F0
:1018E0001A491B4A1B48F8B50B681B4D046843F0A6
:1018F00080730B60136843F0010313602E6814B902
:1019000015E064699CB1237A002BFAD023682F6814
:101910001B68204698472B68E188DB1B1B099AB29D
:101920008B42A28088BFE2806469002CEBD10A4B15
:101930000A4A1B6810880A4C9B1B1B0999B28342F8
:10194000218001D91180F8BDF8BD00BFFCED00E099
:10195000001000E0703BFF1F041000E0F03BFF1F91
:10196000F63BFF1FF0B572B699B902688AB10379E8
:101970000F2B0ED8284C218841FA03F5ED070AD524
:1019800003F1007303F59063B2EB431F03D162B61A
:10199000F0BD214C2188002341FA03F212F001022C
:1019A00007D00133102BF7D162B600220371026019
:1019B000F0BD01259D402943218062B6174E184D88
:1019C000184FDFF868E0D9B20171346844F00204BE
:1019D00034602C6844F002042C60A6F5802640F2A6
:1019E0008244A5F5802503F100733C6003F5906304
:1019F000223E243D0C4C8EF800105B0131702970A2
:101A0000217003601A605A609A60DA601A615A6144
:101A10009A61DA61F0BD00BFF83BFF1F40800440CF
:101A20003C800440008000401F8000401A8000403D
:101A300003790F2B12D80A4A10B4137072B60949F1
:101A400004790A880123A34022EA03030B8062B6CB
:101A5000102200235DF8044B02710360704700BF41
:101A60001A800040F83BFF1F08B5FEF74BFDFEF75C
:101A7000B1FD01F04DFDFAE7844641EA000313F0A1
:101A800003036DD1403A41D351F8043B40F8043B85
:101A900051F8043B40F8043B51F8043B40F8043B48
:101AA00051F8043B40F8043B51F8043B40F8043B38
:101AB00051F8043B40F8043B51F8043B40F8043B28
:101AC00051F8043B40F8043B51F8043B40F8043B18
:101AD00051F8043B40F8043B51F8043B40F8043B08
:101AE00051F8043B40F8043B51F8043B40F8043BF8
:101AF00051F8043B40F8043B51F8043B40F8043BE8
:101B000051F8043B40F8043B403ABDD2303211D387
:101B100051F8043B40F8043B51F8043B40F8043BC7
:101B200051F8043B40F8043B51F8043B40F8043BB7
:101B3000103AEDD20C3205D351F8043B40F8043B87
:101B4000043AF9D2043208D0D2071CBF11F8013B85
:101B500000F8013B01D30B8803806046704700BF4B
:101B6000082A13D38B078DD010F003038AD0C3F15A
:101B70000403D21ADB071CBF11F8013B00F8013B3C
:101B800080D331F8023B20F8023B7BE7043AD9D3FB
:101B9000013A11F8013B00F8013BF9D20B780370D0
:101BA0004B7843708B7883706046704708B5104C53
:101BB00008E0236859050DD423681A050FD423685B
:101BC000DB0411D423685803F3D500F0F3FC236839
:101BD0005905F1D501F084FE23681A05EFD501F00F
:101BE00015FF2368DB04EDD501F0A6FFEAE700BF8F
:101BF0003480044008B5FFF7D9FF00BF014B102225
:101C00001A80704700200540704700BF094908B599
:101C10000B6830B16A461844A2F50052904202D2D5
:101C20000860184608BD03F027F90C2303604FF045
:101C3000FF3008BD041CFF1FFEE700BF084A1378F1
:101C4000802B01D0002070470649074B07480860E9
:101C5000002119701378802BFCD00120704700BF41
:101C600003E007404480044001E0074000002822D0
:101C7000094A1378012B01D00020704703F18043FB
:101C800003F5FC23602119701378802BFCD1034BE2
:101C9000034A1A600120704703E007404480044073
:101CA0000000060210B4114B53F8302092F8804225
:101CB00034B1012379B182F880305DF8044B70476C
:101CC00003EBC0035B681A6851B922F002021A6084
:101CD0005DF8044B704782F800315DF8044B7047A3
:101CE00042F003021A605DF8044B7047485B000045
:101CF0001C4A02EBC00301295B6811D004291BD0E8
:101D000052F83000002280F8802229B1022920D028
:101D1000032922D01A6070474FF480721A6070470E
:101D200052F830004FF4A27280F880121A601A68DC
:101D300022F020021A60704752F830104FF4A2725D
:101D4000012081F880021A601A6842F020021A60AD
:101D5000704740F203121A6070474FF481721A60A4
:101D6000704700BF485B000030B4054B054D064C82
:101D7000002210211A602A602060196030BC704770
:101D800014D0034004D0034000D003403F2801D8C2
:101D9000FFF788BF704700BF3F2806D8044B53F8B1
:101DA000303093F80002C0B270470020704700BF87
:101DB000485B00003F2801D8FFF79ABF704700BF7B
:101DC00072B60D490D4B0E4A1B680868126862B660
:101DD000520102D5322B88BF0130C3F52F33094998
:101DE00003F21F334FF47A729B08A1FB031302FB2B
:101DF00000F000EB93007047FC3BFF1F18E000E091
:101E000004ED00E0176CC1162DE9F843054672B6E3
:101E1000224F234B234A1B683C68126862B652016A
:101E200002D5322B88BF0134B5B3C3F52F3303F28B
:101E30001F331D4EDFF86890DFF868809B084FF471
:101E40007A72A6FB031302FB04F404EB930472B64C
:101E5000D9F800103A68D8F800E062B6C1F52F331F
:101E600003F21F339B08A6FB03031EF0806FC4EB35
:101E700093034FF47A7002D0322988BF013200FBFD
:101E80000233B3F57A7F04D3013D05D004F57A74AB
:101E9000DDE701F03DFBDAE7BDE8F883FC3BFF1F1F
:101EA00018E000E004ED00E0176CC116F8B54E4BE9
:101EB0004E48DFF85CC14E4C4E49DFF858E14E4EBB
:101EC0004E4D4F4F4FF000621A604FF080521A6033
:101ED0004FF000521A604FF080421A604FF00042FB
:101EE0001A600022026028234EF6FF70CCF8000032
:101EF000CEF8003023600EF5012E0B6033602B60AE
:101F000006F500263B6005F50025A36207F50027CE
:101F10008B6204F5012401F5012106F6E87605F649
:101F2000E87507F57F6710310EF1100E203433602D
:101F30002B60CEF800303B600B602360314CBB61FE
:101F40008B6109212160A7F5002704F58054203F0B
:101F500008343A602060BB60E36047F8041C04F575
:101F6000FD2407F5FE27043704F2FC742260386074
:101F7000A360FB6044F8041C083404F6FC74C7F842
:101F8000FC2F2060A4F5E124A4F2DC7433602B6004
:101F9000C7F8F81F21681C4841F4007121600168EE
:101FA0001A4C0EF57F4E0EF1E80E07F5883706F550
:101FB000803605F5803541F000710160CEF80020D3
:101FC00047F6FF710822396033602B60226001F010
:101FD00007FC1920FFF718FF01F0F0F840F213108A
:101FE000BDE8F840FFF710BF04E100E004800340C3
:101FF000148003401C800340248003402C80034055
:1020000034800340008003400480044000900C4072
:10201000088003400C80034000EB83039842F0B536
:102020000AD32DE050F8044B21F8024B83424FEACB
:10203000144422F8024B23D98C07F3D4A3F1080EE1
:10204000704512D250F8087B50F8046C340C24040C
:10205000BDB244EA174445EA0645704541F8045BC1
:1020600042F8044BEED383420FD950F8044B21F8C9
:10207000024B83424FEA144422F8024BF5D8F0BDDC
:10208000A3F1080E7045DDD3F0BDF0BDF8B50646EE
:1020900072B61B4B1B4F1C481C491A8804683D68CC
:1020A000002303603B6008780B7062B698B1184F4C
:1020B00018483968DFF860E0C2F1400380FB030292
:1020C000A2EBE3721144642202FB03F303EB11233E
:1020D0003960CEF800303DB1304600222946FFF786
:1020E0004FFB2846FFF722FB4CB130462146012228
:1020F000FFF746FB2046BDE8F840FFF717BBF8BDE9
:102100002C3CFF1F203CFF1F083CFF1F1C3CFF1FF7
:10211000081CFF1F56555555D011FF1F0B4B0C497E
:102120001B680C480C4AF0B5DFF840E00B4F0C4E32
:102130000C4D0D4C1B0ACEF8003000230B703B8079
:1021400033602B60236003601370F0BD081CFF1F19
:102150001C3CFF1F083CFF1F143CFF1F2C3CFF1FB3
:10216000183CFF1F003CFF1F203CFF1FD011FF1F2A
:10217000514B2DE9F04FB3F80080DFF850B14F4BD1
:10218000DBF8004001221A704D4B83B08608C2462E
:102190001D68002C4ED0002D55D0002E5CD0C8F10B
:1021A0008007BE42C0F08380464B0193DFF8208158
:1021B000DFF814910FBBD8F80030002B37D1D9F8D5
:1021C00000204B46002A32D1C8F800401D60FFF7BE
:1021D00059FA0446002845D0FFF754FA054600286E
:1021E00049D0374BCBF800401860002E33D07F2EFB
:1021F0004FF0000A4FF0800749D94FEA4A032A1DE1
:10220000211D1A44194401983B46FFF705FF019A26
:10221000D8F8003002EB8702F61B019223B9D9F8F7
:102220000020294B002ACFD0234B57441F8003B0F6
:10223000BDE8F08FFFF726FA04460028F7D0CBF868
:102240000000002DA9D1FFF71DFA05460028EED0A9
:102250001B4B1860A1E7B046174BA3F8008003B0F2
:10226000BDE8F08F164BCBF800001860124B1880B9
:1022700003B0BDE8F08F2046FFF758FA104BCBF8BB
:1022800000501D600C4B1D8003B0BDE8F08FD046A0
:1022900053462A1D211D1A44194401983346FFF75D
:1022A000BBFE054B46441E8003B0BDE8F08F054AD7
:1022B00001924FEA4803ECE72C3CFF1F1C3CFF1F38
:1022C000003CFF1FD411FF1F083CFF1F183CFF1FDD
:1022D000203CFF1F354A2DE9F04F13680133082BCE
:1022E00083B051D81360B02301934FF02C0A3049CA
:1022F000DFF8D0B04FF000080868C8EB0A030028E8
:1023000049D0BBF800E02B4AD2F80090CEF1800211
:10231000934228BF1346051D4FEA4E0209F10407F8
:10232000154417444FEA88066BB1234A043E16440D
:102330001C4637F902CB35F8022B013C42EA0C422D
:1023400046F8042FF5D19E44BEF17F0F984407D87C
:10235000ABF800E0C245CFD8019803B0BDE8F08FDC
:102360000091FFF7E3F94846FFF7E0F913480099B9
:102370000368134A0B60002314680360ABF8003055
:1023800013600C4B1C60E5E700231360B42301933A
:102390004FF02D0AABE7084C01469A0004EB4800C9
:1023A00003F060F8019803B0BDE8F08F181CFF1F20
:1023B0000C3CFF1F243CFF1F8812FF1F283CFF1FFF
:1023C000103CFF1F043CFF1F0378A12B01D000200D
:1023D0007047C378012B12D0022BF8D14378812BA0
:1023E00018D0822B1DD0832B0FD0842BEFD101204E
:1023F000002308704B7002231360012070470B48C4
:1024000040680870184613607047FF200F2308705B
:102410004B70F0E7054B986808709B681B124B7077
:10242000E9E700230B704B70E5E700BF0C1CFF1FB2
:102430000378212B01D000207047C3784078012B0E
:102440000ED0022BF7D10128F5D110B40B784C78BF
:10245000074A03EB0423936010605DF8044B704758
:102460000128E8D1024B0A7883E80500704700BFD5
:102470000C1CFF1F01380E280BD872B6074B53F8FF
:10248000203043B100205B680130002BFBD162B6E5
:102490007047002070471846F9E700BF343DFF1F22
:1024A000F0B5864672B6022201231C491C4F02E099
:1024B0002946013301320D2B01F10105F9D00978CC
:1024C00017489C00090744F0010605D557F8341059
:1024D00069B157F83610C1B1102AE9D162B6114B73
:1024E00000221A707046BDE8F04000F023BF0D498D
:1024F0000D4D0A7840F8345000EB43130EF10800FC
:10250000013A58600A7062B6F0BD0649074B40F8C0
:1025100036300A7800EBC603F0E700BF545D0000D8
:102520000000FF1FB53DFF1F88004000C8004000AD
:10253000431E0E2B1DD81B4A400140F0100030B442
:10254000104472B6184CE25C032A1BD8DFE802F094
:102550000212151703220D88E25410F0080F14BF61
:10256000C823882343EA054308310360416062B60B
:1025700030BC704708300222EDE70522EBE7083057
:102580000422E8E7094A52F8230038B1084A52F811
:102590002300416042F8231062B6E9E742F82310B5
:1025A000034AF7E70000FF1FC43DFF1F343DFF1F34
:1025B000703DFF1F2DE9F04FDFF83CA3DFF83CB37F
:1025C00089B047E0013CB64FE4B24FEA93080C2CC7
:1025D00007EBC80900F03B81D9F804200D2CA2F1CB
:1025E000080000F04C811D0700F18C8157F838304D
:1025F0001B0C99B222F8081C002B00F03781A94D62
:1026000055F82460002322F8063C42F8043C002ED2
:1026100000F0B882A44E56F824305860A34D46F816
:10262000240035F81430194425F8141000F062FE27
:10263000002800F0A0829E4A9E4B19F0080F00F17E
:10264000080018BF1346C9F8040047F838300823BB
:102650008AF800309AF80040E4B2630720D5964B20
:102660001B78D3B195490A7802F0FF0322B1013BF0
:10267000DBB20B7003B900BE91490A7802F0FF0388
:102680002AB1013BDBB20B70002B00F04A8200F054
:1026900077FE00F0FDFD00F0BBFE04238AF8003059
:1026A00004F0080303F0FF02002B00F04F819BF8B9
:1026B0000030DBB21C0985D19D08794C54F83530C7
:1026C00004EBC502C3F38303013B51680C2B00F2FA
:1026D0008680DFE803F0888884848484848451843D
:1026E00084840700774B0A68DFF8EC8101931E466B
:1026F0004B68DFF80C92C8F8043093B26C49C8F804
:10270000002001200022B3F5086F44F83510326034
:102710002261A261079289F8000000F0BA8400F2F9
:10272000418140F221218B4200F0F48100F27E8150
:10273000B3F5817F00F05A8300F2F982802B00F01C
:102740007D84822B40F0EC82B8F8043003F07F03E4
:102750000F2B00F2E5825C495C48B8F80660027015
:102760009B00194442700B78990744BF0123037002
:1027700002200790554B88E1524B01931B6843B3ED
:10278000534FDFF87C913988524A99F80000157848
:1027900040290E4628BF4026891B002845F0020E1E
:1027A00080F0010089B289F8000039800CBF8820D0
:1027B000C82004EBCE0785F0010540EA06407B60A7
:1027C00044F83E0033441570002900F02281019A3C
:1027D0001360414B1A88B2F5A06F00F01E813F4A8A
:1027E0000123137033E7DFF8F080B8F8002042F2DD
:1027F00021039A4200F02C82D8F80020384B36484A
:102800009A4200F0D3813448FFF712FEC0B1314A3A
:10281000DFF8EC90137899F8001083F0010000299C
:1028200043F0020310700CBF8822C82244F8332002
:1028300004EBC30381F00101002289F800105A6003
:102840001B4B264A44F8353001231370FFE61B0763
:1028500000F1938057F83800000CFFF789FC214AFB
:10286000214BC9F8042047F83830F0E6104A114BE4
:1028700019F0080F18BF134647F83830E7E61E076F
:102880007FF5B4AE89F00809184AC9F80420184B3E
:10289000184AC9F80030537B83F001035373D6E61E
:1028A0000000FF1FB43CFF1F343CFF1F9041FF1F7F
:1028B000C800400088004000C03DFF1FF13CFF1FE2
:1028C000E43DFF1F303CFF1FC0200740B83DFF1F05
:1028D000703CFF1FB43DFF1FAC3DFF1F942007401D
:1028E00021090002D411FF1F8000B400D011FF1F86
:1028F00080000300C43DFF1F802007409020074058
:10290000F03CFF1F00F016FDB94ABA4D52F82430D2
:10291000002B00F03B815968285D42F8241003F138
:102920000802C9F80420032805D8DFE800F06F0288
:102930006C6902222A551A8819F0080F0CBF8823E7
:10294000C82343EA024347F8383080E6E00700F145
:10295000EB80210600F1AA81A20706D5A64AA74965
:1029600013780220DBB213700870E30602D5A34B84
:1029700010221A7009B0BDE8F08FFFF7ABFC0028F9
:102980003FF465AE89F0080900049D4B994AC9F8E7
:10299000043040F08000C9F80000137B83F001038D
:1029A000137354E642F221218B4200F0698300F256
:1029B000878140F62122934200F0568240F2A8819E
:1029C00040F60132934200F04F8342F221029342DB
:1029D00000F0A08040F68122934240F0A181B8F837
:1029E000043007900A2B00F07C830B2B40F0988179
:1029F000844A854B1278B8F806601A70012044E0CA
:102A000004222A5597E705222A5594E703222A55DE
:102A100091E7402E18BF0023D9E600219A7859701B
:102A20007A4B1A707A4A0123137010E640F2214261
:102A300093426FD040F29A81B3F5A06F00F01482F8
:102A4000C0F06E81A3F5D063012B00F26981714B58
:102A50005B68002B00F06481B8F80200B8F80450FD
:102A60006C4A04E00C325368002B00F05981118845
:102A70008142F7D15188A942F4D1000A032800F01D
:102A800054831089B8F806600790864280F0EE8182
:102A9000402E354699F80070079628BF40255A19F0
:102AA00087F0010C711B4FEA054800925A4A89F8D9
:102AB00000C01078002F40F0020E0CBF8826C826F8
:102AC00046EA080604EBCE0844F83E6080F00106B2
:102AD000C8F804301670514B002900F0A981402934
:102AE00040F2A9814E4C009D46F0020604EBC6045C
:102AF0006560BCF1000F00F0C7811F70484B494C66
:102B0000107043F836402A4640394032464B01980F
:102B1000198002603E4A012313703D4A012313705D
:102B200095E500F051FCB2E53D4B39483A491A6150
:102B30004FF0020E80F800E03C4F0A703C491960EB
:102B400099602D4E2D4D314C9A610D213970FF2128
:102B50003170DFF8F8E029702270364D364A8EF871
:102B600000109F27012406F8047C5D600470DA6081
:102B700009B0BDE8F08F314A47F8380013780133C7
:102B8000137064E545F824002D4E47E52B5D032BBB
:102B900000F2128101A252F823F000BF4F2600007C
:102BA0004F260000032D0000FD2C00004268254B3D
:102BB0009A427FF428AE184ADFF86090137899F8AB
:102BC000000083F00106002843F00203167080F035
:102BD00001000CBF8826C8260A7889F8000044F84E
:102BE000336004EBC300184B002646601A700AE6F7
:102BF000343DFF1FC43DFF1F882007408020074051
:102C00008812FF1F073CFF1FB83DFF1F9820074099
:102C100094200740645D0000B43DFF1FF03CFF1F9F
:102C20000000FF1FC8004000703CFF1FC02007408D
:102C300088004000743CFF1FF43CFF1FB53DFF1FA0
:102C4000343CFF1F03000100DC3DFF1F8C200740C8
:102C5000B64B08784A7818705A708878CA78987095
:102C6000DA7008791A68187148795871862A887953
:102C7000987101F1070147D0AD4ADFF8F49213785B
:102C800099F8000083F00106002843F00203167053
:102C90000CBF8822C82244F8332004EBC30380F021
:102CA0000100002289F800005A60A5E5A149A24B65
:102CB00080220D2008701A70A2077FF556AE4DE6EF
:102CC00048F2A2118B4200F0C18140F2A18048F28B
:102CD000A132934207D048F2A142934203D048F276
:102CE000A12293421CD1954D9549284607AAFFF78A
:102CF0006BFBA8B1EE880798914BC6E601232B55D4
:102D0000A5E400232B55A2E48E4B0F221A70B3E7E3
:102D1000B3F5106F57D040F6211293423FF4FAAE4C
:102D2000844A0F231370884A01231370F5E640F29A
:102D3000211293423FF4EEAE40F2A1129342EFD142
:102D4000B8F80230B3F5407F00F0BE81B3F5807F64
:102D5000E6D1B8F80430794A0C2BE1D1784BD6880B
:102D6000082000221A605A6007908EE640F2023274
:102D7000934257D1B8F8043003F07F030F2BCFD81C
:102D8000B8F80220002ACBD16A4A9B001A44137873
:102D900043F002031370664B187840F0020280F093
:102DA000010604EBC2011E70C820002344F8320063
:102DB0004B6089F80030ADE619F0080F0CBF022314
:102DC00003232B5543E4614D614A98F80230137098
:102DD00005F5F07602E00835AE4269D02B6A1F0691
:102DE000F9D5686A083800F0A5FAF4E7B8F80430B5
:102DF00003F07F030F2B93D8B8F80220002A8FD15D
:102E00004C4A9B001A44137823F002031370C2E764
:102E100042F22132934227D048F2A11293423FF46A
:102E200062AF7DE740F2213293423FF473AE77E721
:102E3000402D7FF46FAE46F0020604EBC604009D01
:102E40006560424B0C04BCF1000F27D144F08804AC
:102E50000D4443F83640107089F800702A46402926
:102E60007FF458AE002151E6002003464028054675
:102E700099F8007028BF40255A1987F0010C411BB2
:102E80004FEA0548009211E61F7010702F4B009A10
:102E9000304C43F836404039403237E61070009AE3
:102EA00089F8007044F0C8040A4443F83640D6E775
:102EB00029492A4A00912A482A492B4D2B4E02952E
:102EC0000023CDF81080CDF8149017461D4680469B
:102ED00089460396386828B1466800F02BFA3046D8
:102EE000002EF9D1009B186800233B60039B1A4613
:102EF000002342F8253028B1466800F01BFA30461E
:102F0000002EF9D1009A98F80030114600220A608C
:102F100049F8042F029A4FF00001023B22F81510E5
:102F2000032B2BD8DFE803F07D267D26B041FF1F61
:102F3000B43DFF1FC020074080200740AC3DFF1F6D
:102F4000B83DFF1FF13CFF1F942007400000FF1F0A
:102F5000C03DFF1F88004000343DFF1FB43CFF1FF1
:102F6000C43DFF1F6C3DFF1F9041FF1F343CFF1FFE
:102F7000F03CFF1F4FF0010388F80030009B013543
:102F800004330F2D07F10407009308F10108A1D1C4
:102F9000754B76497648DDF81080DDF81490CDF851
:102FA00000801A460023CDF80890037002270126FE
:102FB0008846914610E0B50045F0020045F0030553
:102FC00000230E2E44F8303044F8353000F0C28033
:102FD000102F2BD00136013718F8013B09F8043BBC
:102FE0000D2E00F0A7801807E5D500F083F9002822
:102FF00061D004EB4613B500083058605D4B44F8CF
:10300000353000F077F900284BD045F0010304EB90
:10301000C30E00F108025848CEF8042044F83300EB
:10302000CAE74FF0000388F80030A7E7DDF800801A
:10303000DDF80890B8F80660079826E54F4BB8F819
:1030400006601A7002205A7007901EE5B8F80660F4
:10305000022E7FF665AE494B44219A700320AC22C4
:1030600019705A70079010E5B8F804300A2B3AD05E
:103070000B2B7FF455AE424BB8F802201A708AE64B
:1030800040484149414B006898F8022008601A7096
:1030900081E63F4A394B12780790B8F806601A70FB
:1030A000F3E4334B324A1B7845F0010E013344F808
:1030B0003E00137080E72E4B2D4A1B78B50001337C
:1030C00044F8350013709CE7B8F804300C2B7FF4FB
:1030D00027AE2A4BB8F806600A2201201A70079022
:1030E000D3E42C4A85E498F802302A4A1370002B66
:1030F0003FF451AE284D294B2F7BA3F10806002F3A
:1031000018BF1E4633681A063FF545AEDFF8A880A3
:10311000B0224046002102F0A5F987F00107204BBC
:10312000C6F804802F73336035E61878B8F8066067
:103130000790AAE41B4B1C48C4F8A431C4F8AC3176
:103140000023C4F8A001C4F8A801C4F8B031C4F841
:10315000B8313FE7154B154A154942F8301003EBDB
:10316000C003144A5A6035E7C4200740545D00008C
:10317000B53DFF1F88004000C8004000B83DFF1F5C
:10318000073CFF1FFC3BFF1FB841FF1FF03DFF1F27
:10319000C03DFF1F063CFF1FC43DFF1FB801FF1FBE
:1031A0008000B000D411FF1F8000B4000000FF1F9A
:1031B00080000300D011FF1F8812FF1F2DE9F0418E
:1031C000274C00F09FFE002204F5F47023461A609D
:1031D0005A60083383424FF00001F8D12148224A57
:1031E0000368DFF89CE0214E214D224FDFF894C0A8
:1031F000DFF8948043F480230360136843F0407346
:10320000136003238EF80030A023337002F5C92227
:10321000C4F3072300F528302B708030C4F3074334
:1032200010323B70240EFF230470134D8CF80030D5
:10323000124888F800301370012306F8AC3C4FF4B4
:1032400000140EF8441C7026102107F82C3C2E7038
:10325000046082F8F810AEF1440EBDE8F08100BFC2
:103260000000FF1F3480044000D800404021074088
:103270009C200740B020074035E400E004E100E076
:10328000442107408020074088200740704700BF46
:103290000F4B1B78D3B910B50E4C2168A9B103F0C0
:1032A000FF024B888BB13F2B07DC07330B4401F146
:1032B000470003F8012F8342FBD140230B800920F4
:1032C000FFF736F90023236010BD10BD704700BF23
:1032D000D33DFF1FD43DFF1F044A054B126882B047
:1032E0000192019A1A6002B0704700BFFC3BFF1FB9
:1032F000D83DFF1F72B60D480268B2FA82F31E2B4A
:1033000010DC4FF00041D94022EA0102026062B6AF
:10331000074803EBC303DB00C2180021C15010466D
:103320005160704762B60020704700BF1C1CFF1F31
:103330003C13FF1F0D4B0E4AC31AA2FB03231B09AC
:103340001E2B0CD80B4A127852B972B60A484FF0AD
:103350000041026821FA03F31A43026062B6704723
:10336000064A1278002AF0D0FFF79AB83C13FF1FE4
:10337000398EE338B53DFF1F1C1CFF1FC03DFF1FEA
:1033800038B5084B1C7824B9074D296809B14B881A
:1033900003B938BD9B000B800320FFF7C9F82C60F0
:1033A00038BD00BFDD3DFF1FE03DFF1F044B054A58
:1033B0001B6850881BB11A885B88D31A1844704761
:1033C000EC3DFF1F9041FF1F38B50E4B1B7873B9C2
:1033D0000D4C216861B103F0FF054B880B80022082
:1033E000FFF7A6F8256038BD084B01221A7038BDDA
:1033F000FFF780FF0028F7D00146BDE838400220E3
:10340000FFF796B8E53DFF1FE83DFF1FE43DFF1FB6
:103410002DE9F041DFF8F48098F8004082B0002CEC
:103420004BD0092C0DD8324E355D2F461DB15BE0D7
:10343000355D2F4695B90134E4B20A2CF8D188F8ED
:1034400000402C4A13780133DBB2092B137002D9E8
:10345000002388F8003002B0BDE8F081264B88F8E0
:1034600000401C5DFFF746FF0028F4D098F80030BC
:1034700014B9F45405F0FE07204D2149214A31F8D2
:10348000131032F813202B8844720E0A1C0A150AF6
:10349000817208210772C672027345738373C47305
:1034A000018001460F20FFF743F898F80030013300
:1034B00088F8003002B0BDE8F0810F20FEF7DAFF97
:1034C0000128C8D8104B0B4A1B680193019B14704C
:1034D00098F80040094903EB83035B00092C0B803B
:1034E000A1D901231370B6E7034B1C5DBAE700BFF7
:1034F000283EFF1F323EFF1FF43DFF1F343EFF1FDB
:10350000003EFF1F143EFF1FFC3BFF1F333EFF1F0B
:1035100038B52C4C237803B138BD01232370FFF755
:1035200045FF002842D100F0CBF900283BD100F044
:103530005DFA002834D100F0EFFA70BB00F068FBB0
:1035400040BB00F0E1FB10BB00F05AFCE0B90023E7
:103550002370EFF30583002BDED1EFF3108172B6F9
:10356000194B186828B3194C227812BB45691D60A5
:10357000012323700DB3AA6101B962B60025457716
:10358000836898472570C7E700F028F9DFE700F067
:1035900023F9D9E700F01EF9D3E700F019F9CDE7D8
:1035A00000F014F9C7E700F00FF9C0E700F0EEFCF7
:1035B000B9E70029B0D162B638BD054B1D600029BE
:1035C000DCD1DAE7363EFF1F483EFF1F4C3EFF1FAF
:1035D000443EFF1F10B4EFF3108272B6437F33B93D
:1035E000017F012908D0032910D00123437702B9B4
:1035F00062B65DF8044B7047114C2168A1B11149C6
:1036000043610B68836108605861EEE70E4C2168E6
:1036100081B10E4943610B688361086058610C4BAE
:103620004FF080511960E0E7064B416181612060F5
:103630001860DAE7054B4161816120601860EEE7B0
:10364000483EFF1F443EFF1F383EFF1F3C3EFF1F0A
:1036500004ED00E010B4047F4160022CC26003D08E
:103660005DF8044BFFF7B6BF83685DF8044B18475D
:1036700070B5EFF3108272B60C4C206880B10C4E1E
:1036800000254369236073B19D6102B962B6457735
:1036900083689847EFF3108272B620680028F0D153
:1036A00002B962B670BD3360EFE700BF383EFF1F5E
:1036B0003C3EFF1FFFF7DCBF184A30B41468002CF3
:1036C00027D0036821688B420ED2CB1A0021846078
:1036D000C1602360E06010600223037530BC704756
:1036E00011688B42144608D3A2685B1A0360002A53
:1036F000F6D18260C460A060EEE7D268C2608460E8
:10370000E060C568CB1A0222A8602360027530BC55
:1037100070478460C4601060DEE700BF403EFF1F5A
:10372000F8B5224E34682CB32368002B3AD1204FD1
:103730001D4604E03468ECB12368002B32D1A36845
:1037400003B1DD6020693360036825751B68BB42E7
:1037500021D1037F4560022BC46020D0FFF73AFFE0
:103760006368002BE6D023602046FFF7A5FF34688E
:10377000002CE1D1EFF3108372B60E4A00211068DD
:10378000116003B962B628B18468FFF795FF20463F
:103790000028F9D1F8BD224600219847E0E7836868
:1037A0009847DDE7013B2360E4E700BF403EFF1F91
:1037B00055360000503EFF1F024A13680133136064
:1037C000FFF7AEBFFC3BFF1F704700BF704700BF55
:1037D000704700BF704700BF704700BF704700BF11
:1037E00030B42948294A2A4B2A4D6024E12104702B
:1037F00011701B78284C082B30D00A2B27482849F9
:1038000037D00C2B0CBF35225D2212232A60236097
:1038100002600B60234B24491B78244ABBB101236F
:103820000B601360224B23491B78234A012B26D9B6
:10383000042B0FD9082B1ED9102B94BF8623872366
:103840000B6013601D4B01221A7030BC70470B6077
:103850001360E7E784230B601360F3E700F58E2025
:103860000F490830212213232A60236002600B6075
:10387000D0E73922F7E785230B601360E2E7802366
:103880000B601360DEE700BF0040074001400740C7
:10389000201CFF1F08B003400CB0034008B00B40D1
:1038A0000CB00B40553EFF1F20B0034020B00B4032
:1038B000211CFF1F24B0034024B00B40543EFF1FC7
:1038C000054A064B10781B78C0B2DBB2984238BF6D
:1038D0004030C01A704700BF5C3EFF1F5D3EFF1FB7
:1038E000F0B4384B1A7912F0300F2CD072B6997DA3
:1038F00001F0FF0200293DD062B6334F33493878DA
:103900000D78334E1C46C0B2EDB2431C402BE1791A
:1039100028BF0023AB4202F1FF32C9B21CBFF154F1
:10392000184612F0FF02F0D12A4B1B68C2B23A705F
:103930004BB1A84236BFC5F14005401B40192728AE
:10394000C4BF01221A701F49CA78D2B2150616D414
:1039500052060DD51B4B1B795B0609D51E4B1F4923
:103960001B6800220A7003B11A70164B3C22DA70F1
:10397000F0BC70474022D9795A7462B6E3E70B79FC
:103980001C06E5D5164B174E1C783378E4B2DBB233
:103990009C420ED0144D01E0A3420AD00133402BCB
:1039A00028BF00230879E85CC0B2C871087D0728E9
:1039B000F2D9DBB2034933700B79180644BF7C237C
:1039C000CB70C5E700A006405C3EFF1F5D3EFF1FB9
:1039D000A03EFF1F583EFF1FE43EFF1FE03EFF1FBB
:1039E000E83EFF1FE13EFF1F603EFF1F054A064BFA
:1039F00010781B78C0B2DBB2984238BF4030C01A92
:103A0000704700BF5C3FFF1FF13EFF1FF0B4384B13
:103A10001A7912F0300F2CD072B6997D01F0FF02A6
:103A200000293DD062B6334F334938780D78334E94
:103A30001C46C0B2EDB2431C402BE17928BF0023E5
:103A4000AB4202F1FF32C9B21CBFF154184612F06A
:103A5000FF02F0D12A4B1B68C2B23A704BB1A842A8
:103A600036BFC5F14005401B40192728C4BF0122BD
:103A70001A701F49CA78D2B2150616D452060DD54F
:103A80001B4B1B795B0609D51E4B1F491B68002287
:103A90000A7003B11A70164B3C22DA70F0BC704702
:103AA0004022D9795A7462B6E3E70B791C06E5D552
:103AB000164B174E1C783378E4B2DBB29C420ED022
:103AC000144D01E0A3420AD00133282B28BF002364
:103AD0000879E85CC0B2C871087D0728F2D9DBB26A
:103AE000034933700B79180644BF7C23CB70C5E7BC
:103AF00000B006405C3FFF1FF13EFF1F1C3FFF1F51
:103B0000EC3EFF1F603FFF1FF03EFF1F643FFF1FA3
:103B10005D3FFF1FF43EFF1F054A064B10781B78E0
:103B2000C0B2DBB2984238BF4030C01A704700BF05
:103B30006C3FFF1F6D3FFF1F30B42B4B1A7994066B
:103B40001FD52A48DA790378294901333F2B0978B0
:103B5000C8BF00238B42D2B203D0264CD9B2E25464
:103B60000170254A116861B1244A1278D2B2934299
:103B700036BFC2F140029B1A9B18272BC4BF0123FA
:103B80000B70194AD378DBB2180611D45A060DD53A
:103B9000154B1B795B0609D5194B1A491B68002286
:103BA0000A7003B11A70104B2C22DA7030BC7047C7
:103BB00011790906EAD5144910480C780178C9B280
:103BC0008C420DD04A1C272A84BF00210A460F4D83
:103BD000054C98BFD1B2AA5CD2B2E2710170D5E7B0
:103BE0006C21D170D2E700BF00C006406C3FFF1FC0
:103BF0006D3FFF1F983FFF1F683FFF1FD93FFF1F0B
:103C0000DC3FFF1FD83FFF1FE03FFF1F703FFF1F3C
:103C1000054A064B10781B78C0B2DBB2984238BF19
:103C20004030C01A704700BFE83FFF1FE93FFF1F49
:103C300030B42B4B1A7994061FD52A48DA790378C9
:103C4000294901333F2B0978C8BF00238B42D2B2E8
:103C500003D0264CD9B2E2540170254A116861B1F3
:103C6000244A1278D2B2934236BFC2F140029B1A64
:103C70009B18272BC4BF01230B70194AD378DBB2E2
:103C8000180611D45A060DD5154B1B795B0609D5BC
:103C9000194B1A491B6800220A7003B11A70104BA5
:103CA0002C22DA7030BC704711790906EAD5144924
:103CB00010480C780178C9B28C420DD04A1C272AD2
:103CC00084BF00210A460F4D054C98BFD1B2AA5CB3
:103CD000D2B2E2710170D5E76C21D170D2E700BF9A
:103CE00000D00640E83FFF1FE93FFF1F1440FF1FC1
:103CF000E43FFF1F5540FF1F5840FF1F5440FF1F68
:103D00005C40FF1FEC3FFF1F054A064B10781B78F5
:103D1000C0B2DBB2984238BF4030C01A704700BF13
:103D20006440FF1F6540FF1F30B42B4B1A79940687
:103D30001FD52A48DA790378294901333F2B0978BE
:103D4000C8BF00238B42D2B203D0264CD9B2E25472
:103D50000170254A116861B1244A1278D2B29342A7
:103D600036BFC2F140029B1A9B18272BC4BF012308
:103D70000B70194AD378DBB2180611D45A060DD548
:103D8000154B1B795B0609D5194B1A491B68002294
:103D90000A7003B11A70104B2C22DA7030BC7047D5
:103DA00011790906EAD5144910480C780178C9B28E
:103DB0008C420DD04A1C272A84BF00210A460F4D91
:103DC000054C98BFD1B2AA5CD2B2E2710170D5E7BE
:103DD0006C21D170D2E700BF00A00E406440FF1FED
:103DE0006540FF1F9040FF1F6040FF1FD140FF1F35
:103DF000D440FF1FD040FF1FD840FF1F6840FF1F67
:103E0000054A064B10781B78C0B2DBB2984238BF27
:103E10004030C01A704700BFE040FF1FE140FF1F65
:103E200030B42C4B5A6894021FD52B48DA680378BB
:103E30002A4901333F2B0978C8BF00238B4204D0A5
:103E4000274CD2B2D9B2E2540170264A116861B14E
:103E5000254A1278D2B2934236BFC2F140029B1A71
:103E60009B18272BC4BF01230B701A4A93681802B2
:103E700002D55268110211D45A020DD5154B5B6858
:103E80005B0209D5194B1A491B6800220A7003B15D
:103E90001A70184B00221A6030BC7047164A12493B
:103EA00010780A78D2B290420DD00132272A84BF0E
:103EB00000200246114D074C98BFD0B2AA5CD2B286
:103EC000E2600870D8E70E480A4A00240121046025
:103ED0001160D1E700400C40E040FF1FE140FF1FB0
:103EE0000C41FF1FDC40FF1F4D41FF1F5041FF1FD2
:103EF0004C41FF1F580188435441FF1FE440FF1FFE
:103F00005C01884310B584B072B6FDF797FE184A7D
:103F1000184B19491160702280211A701A461970C5
:103F200013781B06FCD5154B1C68FDF7A1FE62B685
:103F3000134B9C429CBF04EB840464002046114C4C
:103F400001A90A2200F02AF801A92046002311F84D
:103F5000012B01333AB10A2B20F8022FF7D1162397
:103F6000237004B010BD5B00DBB2237004B010BD41
:103F70000400024000000240000007410C00024023
:103F80007F9698001022FF1F00207047704700BFE7
:103F90000148FFF77BB900BF5841FF1FF0B44D1E29
:103FA0002E46002400E00134B0FBF2F302FB1300C4
:103FB000092800F130078ABF3730F8B2C0B206F8DE
:103FC000010F1846002BEED10A1953704CB110782E
:103FD00015F8016F28700133E01A834202F8016975
:103FE000F5DB0846F0BC70472DE9F00F92B003EB0B
:103FF0004307019189081191119C0F90B8000F9F00
:10400000089204EB4406DDF8449006900021DD00A0
:1040100007EB86029B00089E0595049302940D46CB
:104020000C460B4607EBC90B07EB8900DDF83C801B
:104030005BF8039058F8037049F38D0A4FEAA9081A
:1040400047F38D0C4FEAA7071FFA8CFC4FEA17497C
:104050001FFA8AF74FEA184A4CEA094947EA0A4820
:1040600099FA18F7D9FA18F950F803A052F803C0D2
:10407000CDF80C904FEAAA084AF38D094CF38D0A4B
:104080004FEAAC0C1FFA89F91FFA8AFA4FEA18486E
:104090004FEA1C4C49EA08484AEA0C4C98FA1CFCC6
:1040A00097FA2CF8DDF83C9049F80380D7FA1CF910
:1040B000375927FB09F847FB19F73F0C3F0447EA3C
:1040C000184750F803C0C750D7584CF38D094FEA32
:1040D000AC0847F38D0CBF101FFA89F91FFA8CFC4E
:1040E0003F0C4FEA184849EA08484CEA0747D8FA13
:1040F00017F9DDF80CC0ACFA19F7ECFA19F856F814
:1041000005C02CFB08F94CFB18FC4FEA1C484FEA91
:10411000084C4CEA19484BF8038056F801C02CFBB8
:1041200007F84CFB17F73F0C3F0447EA1847D750F6
:10413000059FDDF81090DDF818C0E419029F0433E4
:10414000013F4D44614402977FF470AFDDF8449025
:10415000B9F1040F40F29F80CDF80890049A0299BB
:10416000CDF840904C46A408671E0C970F9F0E9404
:1041700002EB42034FEA820B4FEA8408D20000258B
:104180009800C4EB84760B9207EB08038A00049531
:10419000CDF828B00D9009930695079505950392E3
:1041A000E1004FEA86090898079D019E4759049D42
:1041B000059B069C50F803B050F804C0AE4246D9A7
:1041C000099B2A4653F8090053F8085090FA15F451
:1041D000D0FA15F01D685E5895FA16F594FA25F692
:1041E00046F34E0A76101FFA8AFA360C4AEA064659
:1041F00043F80960D4FA25F527FB05F647FB15F4CB
:10420000250C2C0444EA16451E681D605C58D6FA3D
:1042100014F5A0FA25F4E0FA25F62BFB06F54BFB86
:1042200016F0060C300440EA154643F808602CFBF3
:1042300004F64CFB14F4250C2804029C40EA1645B5
:10424000019E03985D50121996420344BAD804980F
:10425000059CDDF828C0079F0B9A461C04EB0C0355
:104260000496BD18069E05930D98099B049ADDF8E7
:1042700030C007951F1D341862450694099792D9DE
:10428000109D0A9AA9080429109104D90E98029049
:104290000446014667E7119E0F9C711E2068A468C2
:1042A00001F0010690FA14F50F9A5368D26893FA58
:1042B00012F995FA29F7DDF83C90C9F8007093FAE5
:1042C00012F7D5FA27F5C9F80450D0FA14FCD3FA3E
:1042D00012F3ECFA23F0C9F80800ACFA23F2C9F89B
:1042E0000C2009F11003002959D0E6B11C689D6823
:1042F00094FA15F65A68D86892FA10FC96FA2CF7D8
:104300001F6092FA10F7D6FA27F65E60D4FA15F419
:10431000D2FA10FCE4FA2CF09860A4FA2CF2DA60DD
:10432000103301393BD01D689E6895FA16FC5A6817
:10433000D86892FA10F49CFA24F71F6092FA10F4ED
:10434000DCFA24F75F60D5FA16F4D2FA10F6E4FA34
:1043500026F29A60A4FA26F5DD609E691D6903F1D4
:1043600010024C1E95FA16F75969D86991FA10FC9B
:1043700097FA2CFCC3F810C091FA10FCD7FA2CF76E
:104380005760D5FA16FCD1FA10F3ECFA23F09060DE
:10439000ACFA23F1D160611E02F11003C3D112B057
:1043A000BDE8F00F704700BF2DE9F00F92B003EBAE
:1043B0004307019189081191119C0F90B8000F9F3C
:1043C000089204EB4406DDF8449006900021DD00DD
:1043D00007EB86029B00089E0595049302940D4608
:1043E0000C460B4607EBC90B07EB8900DDF83C8058
:1043F0005BF8039058F8037049F38D0A4FEAA90857
:1044000047F38D0C4FEAA7071FFA8CFC4FEA1749B8
:104410001FFA8AF74FEA184A4CEA094947EA0A485C
:1044200099FA18F7D9FA18F950F803A052F803C00E
:10443000CDF80C904FEAAA084AF38D094CF38D0A87
:104440004FEAAC0C1FFA89F91FFA8AFA4FEA1848AA
:104450004FEA1C4C49EA08484AEA0C4C98FA1CFC02
:1044600097FA2CF8DDF83C9049F80380D7FA1CF94C
:10447000375947FB09F827FB19F73F0C3F0447EA78
:10448000184750F803C0C750D7584CF38D094FEA6E
:10449000AC0847F38D0CBF101FFA89F91FFA8CFC8A
:1044A0003F0C4FEA184849EA08484CEA0747D8FA4F
:1044B00017F9DDF80CC0ECFA19F7ACFA19F856F850
:1044C00005C04CFB08F92CFB18FC4FEA1C484FEACE
:1044D000084C4CEA19484BF8038056F801C04CFBD5
:1044E00007F82CFB17F73F0C3F0447EA1847D75053
:1044F000059FDDF81090DDF818C0E419029F043321
:10450000013F4D44614402977FF470AFDDF8449061
:10451000B9F1040F40F29F80CDF80890049A0299F7
:10452000CDF840904C46A408671E0C970F9F0E9440
:1045300002EB42034FEA820B4FEA8408D2000025C7
:104540009800C4EB84760B9207EB08038A0004956D
:10455000CDF828B00D90099306950795059503921F
:10456000E1004FEA86090898079D019E4759049D7E
:10457000059B069C50F803B050F804C0AE4246D9E3
:10458000099B2A4653F8090053F8085090FA15F48D
:10459000D0FA15F01D685E5895FA16F594FA25F6CE
:1045A00046F34E0A76101FFA8AFA360C4AEA064695
:1045B00043F80960D4FA25F547FB05F627FB15F407
:1045C000250C2C0444EA16451E681D605C58D6FA7A
:1045D00014F5E0FA25F4A0FA25F64BFB06F52BFBC3
:1045E00016F0060C300440EA154643F808604CFB10
:1045F00004F62CFB14F4250C2804029C40EA164512
:10460000019E03985D50121996420344BAD804984B
:10461000059CDDF828C0079F0B9A461C04EB0C0391
:104620000496BD18069E05930D98099B049ADDF823
:1046300030C007951F1D341862450694099792D91A
:10464000109D0A9AA9080429109104D90E98029085
:104650000446014667E7119E0F9C711E2068A468FE
:1046600001F0010690FA14F50F9A5368D26893FA94
:1046700012F995FA29F7DDF83C90C9F8007093FA21
:1046800012F7D5FA27F5C9F80450D0FA14FCD3FA7A
:1046900012F3ACFA23F0C9F80800ECFA23F2C9F8D7
:1046A0000C2009F11003002959D0E6B11C689D685F
:1046B00094FA15F65A68D86892FA10FC96FA2CF714
:1046C0001F6092FA10F7D6FA27F65E60D4FA15F456
:1046D000D2FA10FCA4FA2CF09860E4FA2CF2DA601A
:1046E000103301393BD01D689E6895FA16FC5A6854
:1046F000D86892FA10F49CFA24F71F6092FA10F42A
:10470000DCFA24F75F60D5FA16F4D2FA10F6A4FAB0
:1047100026F29A60E4FA26F5DD609E691D6903F1D0
:1047200010024C1E95FA16F75969D86991FA10FCD7
:1047300097FA2CFCC3F810C091FA10FCD7FA2CF7AA
:104740005760D5FA16FCD1FA10F3ACFA23F090605A
:10475000ECFA23F1D160611E02F11003C3D112B053
:10476000BDE8F00F704700BF70B5837842680D4612
:10477000012B044601888389284605D0FFF734FCC5
:10478000E078012805D070BDFFF70EFEE078012823
:10479000F9D12188E289A3682846BDE8704000F07D
:1047A00049B800BF10B41D4C0180B1F5807F446052
:1047B0008270C3702AD009D9B1F5806F18D0B1F5D5
:1047C000805F0ED0FF2040B210BC7047102916D079
:1047D0004029F7D1124B4FF04011C1608360002097
:1047E000F1E7104B4FF00111C16083600020EAE750
:1047F0000D4A4FF00413C36082600020E3E70B4AC8
:104800004FF00123C36082600020DCE708494FF0CD
:104810001012C26081600020D5E700BFE05F000099
:104820005E500100E04F0100E64F0100DE51010043
:10483000FE4F01002DE9F00F84B049080191019C61
:10484000019EDDF80480023C0021013614F0020FC5
:104850004FEA420B03940296024600EB88050F468E
:1048600059D029684268DDF80CC0416002272A60EF
:10487000BC4519885B446CD3B94214D900EB81095B
:10488000DDF808808468D9F800A001EB080C00EB83
:104890008C08C0F808A0C9F80040EC68D8F800609F
:1048A000EE60C8F8004000F108020835DDF8048029
:1048B00031E0B1420DD99668009650F821609660BB
:1048C000009A40F82120EA6850F82A60EE6040F82B
:1048D0002A2050F829106268616040F82920BCF84D
:1048E0000020029DBA42114615440ED9A66850F820
:1048F0002290C4F8089040F82260D8F80C2050F8B4
:104900002560C8F80C6040F8252008F10805DDF89E
:10491000048004F1080201EB0809566850F829A048
:10492000DDF808C0C2F804A040F82960198801EB3E
:104930000809DDF80C80BE1CB71C01EB0C0AB04561
:1049400003EB0B0C02F1080405F108080CEB0B0358
:10495000AFD204B0BDE8F00F704700BF0B46014670
:10496000184600F083BA00BF90F8392090F838005C
:10497000101A704790F8383090F839209A4205D9CB
:104980005A1C034480F83820187E70474FF0FF30DF
:10499000704700BF90F8383090F839209A4286BFAF
:1049A0001B18187E4FF0FF30704700BF704700BFE4
:1049B00038B50546B0F85E0090B195F85D30144604
:1049C000C3F1210294420CD805F13B001844224661
:1049D000FDF752F895F85D30234485F85D302046A8
:1049E00038BD012014462871EEE700BFB0F85E30F4
:1049F0006BB190F85D30202B07D8C218013380F8D6
:104A00005D30012082F83B107047012303710020C4
:104A1000704700BF0023426980F8383080F8393091
:104A200080F85C3080F85D3080F85E3080F85F3070
:104A300006CA30B40D68046943662A4383660A6077
:104A4000A370426990F861301649146813441D7AC6
:104A50005B7B01EBC5051B026D6803F4E06343F06B
:104A600064032B6090F8623013449D7CDB7D01EB86
:104A7000C5011B02496803F4E06343F064030B6063
:104A800021685368194205D003692C225A700369C2
:104A900004229A71036920225A71036980229A7054
:104AA00030BC7047485B000038B50269D478E4B286
:104AB000E106054624D51023D37063061FD504F004
:104AC000040404F0FF03002C5AD042496A6E00230C
:104AD0000B7085F85D30002A66D0904795F85D3000
:104AE000002B61D02B69D0229A702B6995F83B205E
:104AF0001A712B69012285F85C200222DA7038BD18
:104B000004F0400303F0FF00002BD8D19379DBB20F
:104B100003F0600160294ED0937803F0100303F096
:104B2000FF01B3B114F0010437D195F85C3095F86A
:104B30005D1099424BD9591C2B4485F85C1093F8B1
:104B40003B3013712B69D0229A702B690222DA70E4
:104B5000D5E785F86010937943F0200393712B69B2
:104B600095F839101A791F29D2B2C6D81948007899
:104B70000028C2D06818013185F839100276BCE7E8
:104B80002A6985F83930C02393702B69114A197945
:104B9000012111700222DA70B1E7C02393702B69F2
:104BA0001A790222DA70AAE70122002385F85D2033
:104BB00085F83B3096E703F0DF039371AB6E23B1CA
:104BC00085F8380095F8390098472A69A4E71471E8
:104BD000B8E700BF5941FF1F2DE9F047374FDFF815
:104BE000E0903B68026982B006460093DDF80080E1
:104BF00000214FF49675D3789B065BD53B680193F3
:104C0000019BC8EB03030F2BF5D949B1102BF2D050
:104C100000209070336980229A7002B0BDE8F0875E
:104C2000726996F8613013440521187AFDF7C2F8CD
:104C3000726996F861301344012193F812A050462E
:104C4000FDF7B8F8092400215046FDF79FF82B46E0
:104C5000013BFDD101215046FDF798F82B46013B61
:104C6000FDD1013CEFD1706996F8611001444FF419
:104C700016720C7A4B7B09EBC4011B02496803F4E2
:104C8000E06343F064030B6096F862300344997C60
:104C9000DB7D09EBC1011B02496803F4E06343F0CB
:104CA00064030B60013AFDD13269D3789B064FF063
:104CB0000101A3D4012002B0BDE8F087FC3BFF1F37
:104CC000485B0000F0B503691222DA70026993783C
:104CD00003F0200385B004460D46002B5ED0B423BC
:104CE00093703C4922690B680093009E05E00B68B5
:104CF0000193019B9B1B042B42D8D37803F0200324
:104D000003F0FF00002BF2D094F85D30002B31D07F
:104D10004FF0000E4FF0020C04EB0E0393F83B3003
:104D200013710B680393039F206907E09B060DD561
:104D30000B680293029BDB1B052B28D8C378DBB2E0
:104D400003F0020202F0FF06002AEFD080F803C051
:104D50002669F378DBB2DF0632462DD49F062BD5C9
:104D6000DB0731D40EF1010E94F85D305FFA8EFE50
:104D70007345D1D800201DBB002384F85E3004E0C9
:104D80009070236980229A70042005B0F0BD86706F
:104D90002369802204209A7005B0F0BD03F0FF065D
:104DA000FFF71AFF10B9042005B0F0BD236984F89D
:104DB0005F60B0229A7094E78023B3700420DAE732
:104DC00026698023B370D7E7BEF1000F0CBF022025
:104DD0000320F6E7FC3BFF1F0148FFF765BE00BF5D
:104DE0009422FF1F0148FFF75FBE00BF0023FF1F93
:104DF0000148FFF759BE00BF2822FF1F024B0A4699
:104E00000146186800F002B89827FF1F10B502FB92
:104E100001F100F06FF80446D8B150F8042C22F0EC
:104E20000302043A242A18D8132A14D900231B2A6F
:104E30000360436016D9242A8360C36011BF00F168
:104E400010020361436100F11802002313605360F4
:104E50009360204610BD0246F7E7002100F002FBF8
:104E6000204610BD00F10802EFE700BF13460A46D6
:104E70000146022000F07ABB014B1868704700BF62
:104E80009827FF1F70B50F4E0F4D761BB61018BF39
:104E9000002405D0013455F8043B9847A642F9D1C7
:104EA0000A4E0B4D761B10F0DFFCB61018BF002425
:104EB00006D0013455F8043B9847A642F9D170BD9D
:104EC00070BD00BF74580100745801008C58010077
:104ED00074580100024B0146186800F00BB800BF7F
:104EE0009827FF1F024B0146186800F003BC00BF63
:104EF0009827FF1F2DE9F04F01F10B05162D83B008
:104F0000064640F29F8035F0070500F1BF80A942B8
:104F100000F2BC8000F0F4FAB5F5FC7FC0F09C8292
:104F20006B0A00F0BA80042B00F28381A80900F11B
:104F3000390E4FEA4E033830C44F07EB8303A3F119
:104F400008015C68A14207D1ACE0002A80F2AC8085
:104F5000E468A14200F0A680636823F003035A1BB3
:104F60000F2AF2DDB9493C6901F1080E744500F0E1
:104F7000B381636823F003035A1B0F2A00F399815E
:104F8000002AC1F814E0C1F810E080F29E80B3F569
:104F9000007F80F06781DB0803F1010C01229B1088
:104FA00002FA03F34A6851F83C80C4F8088001EB28
:104FB000CC091A43A9F10803E3604A6041F83C4078
:104FC000C8F80C40831001249C40944200F28A806F
:104FD000144206D120F003006400144200F10400E2
:104FE000FAD007EBC009CC468046DCF80C108C45A3
:104FF00007D173E1002A80F28181C9688C4500F0F5
:105000006D814B6823F003035A1B0F2AF2DD0C4617
:10501000D1F80CC054F8088F4B1945F001054D60CC
:1050200042F00101C8F80CC03046CCF808807B6122
:105030003B61C3F80CE0C3F808E059609A5000F0F7
:1050400061FA1FE0102921D800F05AFA1025062332
:1050500002207E4F07EB8303A3F108025C689442B1
:1050600000F045816368E168A56823F003032344E9
:1050700030465A68E96042F001028D605A6000F0E3
:1050800041FA0834204603B0BDE8F08F00240C2319
:105090002046336003B0BDE8F08F80234FF0400E10
:1050A0003F2049E770465DE72344E1685A68A568F8
:1050B00042F00102E96030468D605A6000F022FA49
:1050C0000834204603B0BDE8F08F234430465A68C8
:1050D00042F001025A6000F015FA0834204603B08D
:1050E000BDE8F08FBC68636823F00308A84504D3CB
:1050F000C5EB08030F2B00F38C80554BDFF8609154
:105100001A68D9F8003001332A4404EB080A00F089
:10511000608102F580520F3222F47F6222F00F028A
:1051200011463046019200F00FFAB0F1FF3F83467E
:10513000019A00F05881824500F2FC80454B1968C5
:10514000DA451144196000F05381D9F80000DFF806
:1051500010E101301BBFCAEB0B0A5144CEF800B07E
:1051600019601BF0070100F01781C1F10800C1F5BB
:105170008051834408315A44C2F30B02C2EB010947
:1051800049463046019300F0DFF9431C019B00F0D3
:105190003F81CBEB00024A4442F001021968C7F894
:1051A00008B04944BC42CBF804201960DFF8A49051
:1051B00016D0B8F10F0F40F2FD806268A8F10C0321
:1051C00023F00703E01802F001024FF0050E1A4326
:1051D0000F2B6260C0F804E0C0F808E000F21C8108
:1051E0001D4BBC681A68914288BF19601B4B1A6836
:1051F0009142626888BF196022F003029542A2EBD7
:10520000050301D80F2B04DC304600F07BF90024A5
:1052100038E7621943F0010345F001056560304647
:10522000BA60536000F06EF90834204603B0BDE860
:10523000F08F142B71D9542B00F2A480280B00F1AD
:105240006F0E4FEA4E036E3076E600BF9C27FF1FBD
:105250006441FF1F6841FF1F6041FF1F5C41FF1F4A
:10526000A82BFF1F5A0A042A5ED9142A00F2B38021
:1052700002F15C0149005B3207EB810C57F8211009
:10528000DFF8DC81ACF1080C8C4500F088804A68BE
:1052900022F00302934202D289688C45F7D1D1F8FB
:1052A0000CC07A68C4F80CC0A160CCF80840CC608F
:1052B00088E6631942F0010745F001056560304654
:1052C0004B610B61C3F80CE0C3F808E05F609A50D3
:1052D000083400F017F9D5E64A6873E608F10108CA
:1052E00018F0030F0CF1080C7FF47FAE30E0DC689F
:1052F000A34208BF02303FF435AEB3E60B440C4680
:105300005A68C96854F8085F42F001025A60304692
:10531000E9608D6000F0F6F8B4E603F15C0E03F18D
:105320005B004FEA4E0307E69A0902F13901490092
:105330003832A1E7BC424A4B3FF400AF9C68626838
:1053400022F003025AE759F80839994540F0828063
:1053500010F0030F00F1FF30F5D17B6823EA04035E
:105360007B6064009C423FF6BDAE002C3FF4BAAEB9
:105370001C4240467FF435AE64001C4200F104003C
:10538000FAD02EE6B3F5AA7F18D8E80B00F1780E14
:105390004FEA4E037730CFE54FF48051EBE6012121
:1053A000D8F80430921001FA02F21A43C8F8042027
:1053B000614677E70123CBF8043025E740F25452E9
:1053C000934220D8A80C00F17D0E4FEA4E037C30AA
:1053D000B2E51032A4E6542A26D81A0B02F16F0166
:1053E00049006E3248E7BC68626822F0030205E7B4
:1053F000CAF30B0000287FF4A8AE4244BB6842F019
:1054000001025A60ECE6FE234FF07F0E7E2093E50A
:1054100001224FF00009C1E604F10801304600F016
:1054200069F9D9F80010DBE6B2F5AA7F05D8DA0BE6
:1054300002F17801490077321EE740F254518A4266
:1054400005D89A0C02F17D0149007C3214E7FE2157
:105450007E2211E77B6884E7E808431C5B00F8E5DF
:105460009C27FF1F70B4840746D0541E002A41D0E9
:10547000CDB2034602E0621EE4B3144603F8015BBA
:105480009A07F8D1032C2ED9CDB245EA05250F2C69
:1054900045EA054519D903F110022646103E0F2EA4
:1054A00042F8105C42F80C5C42F8085C42F8045C7C
:1054B00002F11002F2D8A4F1100222F00F0204F05F
:1054C0000F041032032C13440DD91E462246043A11
:1054D000032A46F8045BFAD8221F22F003020432A2
:1054E000134404F003042CB1C9B21C4403F8011B9B
:1054F000A342FBD170BC704714460346C2E700BF0D
:10550000704700BF704700BF10B40C4B0C4C1968BB
:105510000C4AD1F8A830D1F8AC0004FB03F402FB2C
:105520000040A3FB02230344013243F10003C1E91D
:105530002A2323F000405DF8044B70479827FF1F93
:105540002DF451582D7F954C38B5074C0023054656
:1055500008462360FCF75AFB431C00D038BD236883
:10556000002BFBD02B6038BDBC41FF1F2DE9F0475D
:10557000254C2568D5F84841064688469246994606
:10558000C4B360681F2817DC431C76B104EB8005A8
:105590000122C5F888A0D4F8881182401143022E58
:1055A000C4F88811C5F808911ED00230636044F831
:1055B00020800020BDE8F087144B03B34FF4C8707F
:1055C000FFF788FC0446D0B1D5F84831002780E8C1
:1055D0008800C5F8484138460123C4F88871C4F8EA
:1055E0008C71002EE1D0D1E7D4F88C110A43C4F8B5
:1055F0008C21DAE705F5A674C5F84841C1E74FF0FC
:10560000FF30BDE8F08700BF64580100D54E0000B0
:10561000024B13B1024800F005B8704700000000CB
:1056200031560000002301461A461846FFF79EBF78
:1056300038B5074D074C2C1BA41005D0013C55F87C
:10564000043D9847002CF9D1BDE8384010F01EB950
:105650000000000000000000F8B5234F0C4606468D
:10566000FFF74EFFBB685D6825F00305291B01F6B7
:10567000EF7121F47F6121F00F01A1F58054B4F5A1
:10568000805F07DB00213046FFF75EFFBB682B44DD
:10569000984204D03046FFF735FF0020F8BD614244
:1056A0003046FFF751FF01300DD0104BBA68196832
:1056B0002D1B45F001053046091B55601960FFF7A9
:1056C00021FF0120F8BD00213046FFF73DFFBA68F9
:1056D000831A0F2BDEDD064C0449246843F00103D6
:1056E000001B53600860D5E79C27FF1F6841FF1F20
:1056F000A82BFF1F002945D02DE9F0410D4680461B
:10570000FFF7FEFE55F8047C6A4927F00103A5F176
:105710000804E2188E685068B24220F0030062D09C
:10572000FE0750600BD455F8087CE41B01F1080E0D
:10573000A56875453B446FD0E768EF60BD601518FC
:105740006D68ED0742D543F001026260E350B3F5A6
:10575000007F18D2DB085A1C4D6851F83270A760E0
:1057600001209B1000FA03F301EBC2001D4308382F
:10577000E0604D6041F83240FC604046BDE8F041D9
:10578000FFF7C0BE70475A0A042A53D89A0902F19B
:1057900039077F0002F1380501EB870051F8272017
:1057A0004449083890424DD0516821F003018B42A2
:1057B00002D292689042F7D1D068E060A260846023
:1057C000D4604046BDE8F041FFF79CBE95683A4F73
:1057D000BD4203443FD0D068E86043F001028560D9
:1057E0006260E350B3E7FF07034407D455F8082C81
:1057F000A41A1344A068E268C26090602F4A12683D
:1058000043F00100934260608C60B6D32C4B40465D
:105810001968FFF721FFB0E711184968C90744D498
:105820009168D268CA60034443F0010091606060EF
:10583000E350A2E7142A17D802F15C077F0002F1B7
:105840005B05A9E7AA104B68012505FA02F213438C
:105850004B600246B1E743F001024C610C61E56028
:10586000A5606260E35088E7542A06D81A0B02F15B
:105870006F077F0002F16E058EE7B2F5AA7F06D8AA
:10588000DA0B02F178077F0002F1770584E740F236
:105890005450824206D89A0C02F17D077F0002F133
:1058A0007C0579E7FE277E2576E743F001026260FA
:1058B000E35062E79C27FF1FA427FF1FA42BFF1FB5
:1058C0006441FF1F0000000000000000391C0000C0
:1058D0000000000000000000190B000000000000A4
:1058E00000000000A90C0000490C00004D0E000053
:1058F0004D0C0000890D00000000050014002D0073
:1059000050007C00B300F3003D019101EF0156020D
:10591000C7024103C5035204E90488053106E306C2
:105920009D0761082D09010ADE0AC30BB10CA60D03
:10593000A30EA80FB410C811E21204142D155C16A2
:105940009217CE18101A581BA61CF91D521FAF2013
:1059500012227923E5245426C8274029BB2A392C52
:10596000BB2D3F2FC6304F32DA336835F6368738D5
:10597000183AAB3B3E3DD13E6540F9418C431F4553
:10598000B1464248D1495F4BEC4C764EFE4F8451B4
:105990000753875403567D57F258645AD25B3B5DD8
:1059A000A05E00605B61B16202644C659266D16783
:1059B0000A693C6A686B8D6CAC6DC36ED36FDC702A
:1059C000DC71D672C773B07491756A763A770278D3
:1059D000C1787779247AC87A647BF57B7E7CFD7CFC
:1059E000737DDF7D417E9A7EE97E2E7F6A7F9B7F7D
:1059F000C37FE17FF57FFF7FFF7FF57FE17FC37F7F
:105A00009B7F6A7F2E7FE97E9A7E417EDF7D737D5C
:105A1000FD7C7E7CF57B647BC87A247A7779C178BB
:105A200002783A776A769175B074C773D672DC7172
:105A3000DC70D36FC36EAC6D8D6C686B3C6A0A69A9
:105A4000D16792664C650264B1625B610060A05EE2
:105A50003B5DD25B645AF2587D5703568754075317
:105A60008451FE4F764EEC4C5F4BD1494248B146D3
:105A70001F458C43F9416540D13E3E3DAB3B183A52
:105A80008738F6366835DA334F32C6303F2FBB2DB4
:105A9000392CBB2A4029C8275426E5247923122211
:105AA000AF20521FF91DA61C581B101ACE189217B2
:105AB0005C162D150414E212C811B410A80FA30E21
:105AC000A60DB10CC30BDE0A010A2D0961089D0762
:105AD000E30631068805E9045204C5034103C70201
